{
  "transactions": [
    {
      "hash": "0x6aa98211aacea9730e5a031dfba21815f4ade000f71e113d5eb13934e7a10149",
      "transactionType": "CALL",
      "contractName": null,
      "contractAddress": "0x4958a6535f634f4109e6ca4d27a2e7e55c6a6fa6",
      "function": "tagSuspicious(address,uint256,address,uint256,uint256,uint256,bytes32)",
      "arguments": [
        "0x1234567890123456789012345678901234567890",
        "1301",
        "0xA0b86991c6218b36c1d19D4a2e9Eb0cE3606eB48",
        "1000000000",
        "6",
        "8234104122482341265491137074636836252947884782870784360943022469005013929455",
        "0x6b3d01054d791087086e711a499e5ef7f3b91cd1e251a821a0e50578979b6bbf"
      ],
      "transaction": {
        "from": "0x9302e18849f286be2c1a76179ade8e76953f5f4b",
        "to": "0x4958a6535f634f4109e6ca4d27a2e7e55c6a6fa6",
        "gas": "0x8caee",
        "value": "0x0",
        "input": "0xa8b25cb000000000000000000000000012345678901234567890123456789012345678900000000000000000000000000000000000000000000000000000000000000515000000000000000000000000a0b86991c6218b36c1d19d4a2e9eb0ce3606eb48000000000000000000000000000000000000000000000000000000003b9aca0000000000000000000000000000000000000000000000000000000000000000061234567890abcdef1234567890abcdef1234567890abcdef1234567890abcdef6b3d01054d791087086e711a499e5ef7f3b91cd1e251a821a0e50578979b6bbf",
        "nonce": "0x75",
        "chainId": "0x515"
      },
      "additionalContracts": [],
      "isFixedGasLimit": false
    }
  ],
  "receipts": [
    {
      "status": "0x1",
      "cumulativeGasUsed": "0x9ed67",
      "logs": [
        {
          "address": "0x4958a6535f634f4109e6ca4d27a2e7e55c6a6fa6",
          "topics": [
            "0x1997388c58ba32fe84137f08ede16d26588251de47ebcd9e8ff0a6e55ce330f8",
            "0x0000000000000000000000000000000000000000000000000000000000000001",
            "0x0000000000000000000000001234567890123456789012345678901234567890",
            "0x6b3d01054d791087086e711a499e5ef7f3b91cd1e251a821a0e50578979b6bbf"
          ],
          "data": "0x0000000000000000000000000000000000000000000000000000000069c14fee",
          "blockHash": "0x0000000000000000000000000000000000000000000000000000000000000000",
          "blockNumber": "0x2ca6822",
          "blockTimestamp": "0x69b8156e",
          "transactionHash": "0x6aa98211aacea9730e5a031dfba21815f4ade000f71e113d5eb13934e7a10149",
          "transactionIndex": "0x4",
          "logIndex": "0x2",
          "removed": false
        }
      ],
      "logsBloom": "0x00000000000000000000000000000000000000000020000000800000000010000000000000000000000000000000000000000000000000000000000000040000000000000000000000000000000000000000000000040000000000000000000000000000000000000000000000000000000000000000000000000000000000000000000000000080008000000000000000000000000000000000000000000000000000000000000000000100000000800000000000000000000000000000000000000000000000000000000000000000000000000000000000000000000040000000000000000010000000000000000000000000000000000000020080100040",
      "type": "0x2",
      "transactionHash": "0x6aa98211aacea9730e5a031dfba21815f4ade000f71e113d5eb13934e7a10149",
      "transactionIndex": "0x4",
      "blockHash": "0x0000000000000000000000000000000000000000000000000000000000000000",
      "blockNumber": "0x2ca6822",
      "gasUsed": "0x60319",
      "effectiveGasPrice": "0x7a121",
      "blobGasUsed": "0xe100",
      "from": "0x9302e18849f286be2c1a76179ade8e76953f5f4b",
      "to": "0x4958a6535f634f4109e6ca4d27a2e7e55c6a6fa6",
      "contractAddress": null,
      "daFootprintGasScalar": "0x190",
      "l1BaseFeeScalar": "0x7d0",
      "l1BlobBaseFee": "0x13fc1d96",
      "l1BlobBaseFeeScalar": "0xdbba0",
      "l1Fee": "0x9c2ee4e34",
      "l1GasPrice": "0xd",
      "l1GasUsed": "0x90c"
    }
  ],
  "libraries": [],
  "pending": [],
  "returns": {},
  "timestamp": 1773671789990,
  "chain": 1301,
  "commit": "4b72d96"
}